{"abi":[{"type":"function","name":"getPet","inputs":[{"name":"petId","type":"uint256","internalType":"uint256"}],"outputs":[{"name":"","type":"tuple","internalType":"struct PetRegistry.Pet","components":[{"name":"id","type":"uint256","internalType":"uint256"},{"name":"name","type":"string","internalType":"string"},{"name":"breed","type":"string","internalType":"string"},{"name":"ipfsHash","type":"string","internalType":"string"},{"name":"owner","type":"address","internalType":"address"},{"name":"isMissing","type":"bool","internalType":"bool"}]}],"stateMutability":"view"},{"type":"function","name":"petCount","inputs":[],"outputs":[{"name":"","type":"uint256","internalType":"uint256"}],"stateMutability":"view"},{"type":"function","name":"pets","inputs":[{"name":"","type":"uint256","internalType":"uint256"}],"outputs":[{"name":"id","type":"uint256","internalType":"uint256"},{"name":"name","type":"string","internalType":"string"},{"name":"breed","type":"string","internalType":"string"},{"name":"ipfsHash","type":"string","internalType":"string"},{"name":"owner","type":"address","internalType":"address"},{"name":"isMissing","type":"bool","internalType":"bool"}],"stateMutability":"view"},{"type":"function","name":"registerPet","inputs":[{"name":"_name","type":"string","internalType":"string"},{"name":"_breed","type":"string","internalType":"string"},{"name":"_ipfsHash","type":"string","internalType":"string"}],"outputs":[],"stateMutability":"nonpayable"},{"type":"function","name":"updateStatus","inputs":[{"name":"petId","type":"uint256","internalType":"uint256"},{"name":"_isMissing","type":"bool","internalType":"bool"}],"outputs":[],"stateMutability":"nonpayable"},{"type":"event","name":"PetRegistered","inputs":[{"name":"petId","type":"uint256","indexed":true,"internalType":"uint256"},{"name":"owner","type":"address","indexed":true,"internalType":"address"}],"anonymous":false},{"type":"event","name":"PetStatusUpdated","inputs":[{"name":"petId","type":"uint256","indexed":true,"internalType":"uint256"},{"name":"isMissing","type":"bool","indexed":false,"internalType":"bool"}],"anonymous":false}],"bytecode":{"object":"0x6080604052348015600e575f5ffd5b50610ae18061001c5f395ff3fe608060405234801561000f575f5ffd5b5060043610610055575f3560e01c80632ffbac7014610059578063387008c21461006e57806359d5519414610081578063cd619f58146100aa578063cfb869bf146100c1575b5f5ffd5b61006c610067366004610756565b6100e6565b005b61006c61007c3660046107e4565b6101e8565b61009461008f366004610816565b6102a3565b6040516100a1919061085b565b60405180910390f35b6100b360015481565b6040519081526020016100a1565b6100d46100cf366004610816565b6104e1565b6040516100a1969594939291906108e6565b600180546040805160c0810182528281526020808201888152828401889052606083018790523360808401525f60a0840181905285815291829052929020815181559151929390929082019061013c90826109cc565b506040820151600282019061015190826109cc565b506060820151600382019061016690826109cc565b5060808201516004909101805460a0909301511515600160a01b026001600160a81b03199093166001600160a01b039092169190911791909117905560018054905f6101b183610a87565b9091555050604051339082907f7a92415b8c58de5d1252866093d59e3297daf4846e2c15c090d8141844397166905f90a350505050565b5f82815260208190526040902060048101546001600160a01b031633146102455760405162461bcd60e51b815260206004820152600d60248201526c2737ba103832ba1037bbb732b960991b604482015260640160405180910390fd5b600481018054831515600160a01b0260ff60a01b1990911617905560405183907f75fdb8e3cad789a2f91318c67ff2ae3c21971ee22c5a9c073e97c6b5fba42ee29061029690851515815260200190565b60405180910390a2505050565b6102e46040518060c001604052805f81526020016060815260200160608152602001606081526020015f6001600160a01b031681526020015f151581525090565b5f8281526020818152604091829020825160c0810190935280548352600181018054919284019161031490610948565b80601f016020809104026020016040519081016040528092919081815260200182805461034090610948565b801561038b5780601f106103625761010080835404028352916020019161038b565b820191905f5260205f20905b81548152906001019060200180831161036e57829003601f168201915b505050505081526020016002820180546103a490610948565b80601f01602080910402602001604051908101604052809291908181526020018280546103d090610948565b801561041b5780601f106103f25761010080835404028352916020019161041b565b820191905f5260205f20905b8154815290600101906020018083116103fe57829003601f168201915b5050505050815260200160038201805461043490610948565b80601f016020809104026020016040519081016040528092919081815260200182805461046090610948565b80156104ab5780601f10610482576101008083540402835291602001916104ab565b820191905f5260205f20905b81548152906001019060200180831161048e57829003601f168201915b5050509183525050600491909101546001600160a01b0381166020830152600160a01b900460ff16151560409091015292915050565b5f602081905290815260409020805460018201805491929161050290610948565b80601f016020809104026020016040519081016040528092919081815260200182805461052e90610948565b80156105795780601f1061055057610100808354040283529160200191610579565b820191905f5260205f20905b81548152906001019060200180831161055c57829003601f168201915b50505050509080600201805461058e90610948565b80601f01602080910402602001604051908101604052809291908181526020018280546105ba90610948565b80156106055780601f106105dc57610100808354040283529160200191610605565b820191905f5260205f20905b8154815290600101906020018083116105e857829003601f168201915b50505050509080600301805461061a90610948565b80601f016020809104026020016040519081016040528092919081815260200182805461064690610948565b80156106915780601f1061066857610100808354040283529160200191610691565b820191905f5260205f20905b81548152906001019060200180831161067457829003601f168201915b505050600490930154919250506001600160a01b0381169060ff600160a01b9091041686565b634e487b7160e01b5f52604160045260245ffd5b5f82601f8301126106da575f5ffd5b813567ffffffffffffffff8111156106f4576106f46106b7565b604051601f8201601f19908116603f0116810167ffffffffffffffff81118282101715610723576107236106b7565b60405281815283820160200185101561073a575f5ffd5b816020850160208301375f918101602001919091529392505050565b5f5f5f60608486031215610768575f5ffd5b833567ffffffffffffffff81111561077e575f5ffd5b61078a868287016106cb565b935050602084013567ffffffffffffffff8111156107a6575f5ffd5b6107b2868287016106cb565b925050604084013567ffffffffffffffff8111156107ce575f5ffd5b6107da868287016106cb565b9150509250925092565b5f5f604083850312156107f5575f5ffd5b823591506020830135801515811461080b575f5ffd5b809150509250929050565b5f60208284031215610826575f5ffd5b5035919050565b5f81518084528060208401602086015e5f602082860101526020601f19601f83011685010191505092915050565b60208152815160208201525f602083015160c0604084015261088060e084018261082d565b90506040840151601f1984830301606085015261089d828261082d565b9150506060840151601f198483030160808501526108bb828261082d565b91505060018060a01b0360808501511660a084015260a0840151151560c08401528091505092915050565b86815260c060208201525f6108fe60c083018861082d565b8281036040840152610910818861082d565b90508281036060840152610924818761082d565b6001600160a01b03959095166080840152505090151560a090910152949350505050565b600181811c9082168061095c57607f821691505b60208210810361097a57634e487b7160e01b5f52602260045260245ffd5b50919050565b601f8211156109c757805f5260205f20601f840160051c810160208510156109a55750805b601f840160051c820191505b818110156109c4575f81556001016109b1565b50505b505050565b815167ffffffffffffffff8111156109e6576109e66106b7565b6109fa816109f48454610948565b84610980565b6020601f821160018114610a2c575f8315610a155750848201515b5f19600385901b1c1916600184901b1784556109c4565b5f84815260208120601f198516915b82811015610a5b5787850151825560209485019460019092019101610a3b565b5084821015610a7857868401515f19600387901b60f8161c191681555b50505050600190811b01905550565b5f60018201610aa457634e487b7160e01b5f52601160045260245ffd5b506001019056fea2646970667358221220ba09eb031db9ab5b828f8d37b24547e1486925b075e68bc9ee7ba3a8c7f2529b64736f6c634300081e0033","linkReferences":{}},"methodIdentifiers":{"getPet(uint256)":"59d55194","petCount()":"cd619f58","pets(uint256)":"cfb869bf","registerPet(string,string,string)":"2ffbac70","updateStatus(uint256,bool)":"387008c2"},"id":19}