{"abi":[{"type":"function","name":"getPetsByOwner","inputs":[{"name":"_owner","type":"address","internalType":"address"}],"outputs":[{"name":"","type":"uint256[]","internalType":"uint256[]"}],"stateMutability":"view"},{"type":"function","name":"nextId","inputs":[],"outputs":[{"name":"","type":"uint256","internalType":"uint256"}],"stateMutability":"view"},{"type":"function","name":"ownerToPets","inputs":[{"name":"","type":"address","internalType":"address"},{"name":"","type":"uint256","internalType":"uint256"}],"outputs":[{"name":"","type":"uint256","internalType":"uint256"}],"stateMutability":"view"},{"type":"function","name":"pets","inputs":[{"name":"","type":"uint256","internalType":"uint256"}],"outputs":[{"name":"id","type":"uint256","internalType":"uint256"},{"name":"name","type":"string","internalType":"string"},{"name":"breed","type":"string","internalType":"string"},{"name":"ipfsHash","type":"string","internalType":"string"},{"name":"owner","type":"address","internalType":"address"},{"name":"isMissing","type":"bool","internalType":"bool"}],"stateMutability":"view"},{"type":"function","name":"registerPet","inputs":[{"name":"_name","type":"string","internalType":"string"},{"name":"_breed","type":"string","internalType":"string"},{"name":"_ipfsHash","type":"string","internalType":"string"}],"outputs":[],"stateMutability":"nonpayable"},{"type":"function","name":"updateStatus","inputs":[{"name":"_petId","type":"uint256","internalType":"uint256"},{"name":"_isMissing","type":"bool","internalType":"bool"}],"outputs":[],"stateMutability":"nonpayable"},{"type":"event","name":"PetRegistered","inputs":[{"name":"petId","type":"uint256","indexed":true,"internalType":"uint256"},{"name":"owner","type":"address","indexed":true,"internalType":"address"},{"name":"name","type":"string","indexed":false,"internalType":"string"},{"name":"breed","type":"string","indexed":false,"internalType":"string"}],"anonymous":false},{"type":"event","name":"PetStatusUpdated","inputs":[{"name":"petId","type":"uint256","indexed":true,"internalType":"uint256"},{"name":"isMissing","type":"bool","indexed":false,"internalType":"bool"}],"anonymous":false}],"bytecode":{"object":"0x6080604052348015600e575f5ffd5b506109ca8061001c5f395ff3fe608060405234801561000f575f5ffd5b5060043610610060575f3560e01c80632ffbac701461006457806336dc767614610079578063387008c2146100a257806361b8ce8c146100b55780639e0a1b7f146100cb578063cfb869bf146100de575b5f5ffd5b6100776100723660046105f8565b610103565b005b61008c6100873660046106a1565b610235565b60405161009991906106c1565b60405180910390f35b6100776100b0366004610703565b61029e565b6100bd5f5481565b604051908152602001610099565b6100bd6100d9366004610735565b610359565b6100f16100ec36600461075d565b610384565b604051610099969594939291906107a2565b5f8054818061011183610804565b909155506040805160c0810182528281526020808201888152828401889052606083018790523360808401525f60a084018190528581526001928390529390932082518155925193945090929082019061016b90826108ac565b506040820151600282019061018090826108ac565b506060820151600382019061019590826108ac565b5060808201516004909101805460a0909301511515600160a01b026001600160a81b03199093166001600160a01b0390921691909117919091179055335f818152600260209081526040808320805460018101825590845291909220018390555182907f35c1c8668bc486a77990f7c21776bad4367793f3dd832b4b9a87faab5eb9696a906102279088908890610967565b60405180910390a350505050565b6001600160a01b0381165f9081526002602090815260409182902080548351818402810184019094528084526060939283018282801561029257602002820191905f5260205f20905b81548152602001906001019080831161027e575b50505050509050919050565b5f82815260016020526040902060048101546001600160a01b031633146102fb5760405162461bcd60e51b815260206004820152600d60248201526c2737ba103832ba1037bbb732b960991b604482015260640160405180910390fd5b600481018054831515600160a01b0260ff60a01b1990911617905560405183907f75fdb8e3cad789a2f91318c67ff2ae3c21971ee22c5a9c073e97c6b5fba42ee29061034c90851515815260200190565b60405180910390a2505050565b6002602052815f5260405f208181548110610372575f80fd5b905f5260205f20015f91509150505481565b600160208190525f9182526040909120805491810180546103a490610828565b80601f01602080910402602001604051908101604052809291908181526020018280546103d090610828565b801561041b5780601f106103f25761010080835404028352916020019161041b565b820191905f5260205f20905b8154815290600101906020018083116103fe57829003601f168201915b50505050509080600201805461043090610828565b80601f016020809104026020016040519081016040528092919081815260200182805461045c90610828565b80156104a75780601f1061047e576101008083540402835291602001916104a7565b820191905f5260205f20905b81548152906001019060200180831161048a57829003601f168201915b5050505050908060030180546104bc90610828565b80601f01602080910402602001604051908101604052809291908181526020018280546104e890610828565b80156105335780601f1061050a57610100808354040283529160200191610533565b820191905f5260205f20905b81548152906001019060200180831161051657829003601f168201915b505050600490930154919250506001600160a01b0381169060ff600160a01b9091041686565b634e487b7160e01b5f52604160045260245ffd5b5f82601f83011261057c575f5ffd5b813567ffffffffffffffff81111561059657610596610559565b604051601f8201601f19908116603f0116810167ffffffffffffffff811182821017156105c5576105c5610559565b6040528181528382016020018510156105dc575f5ffd5b816020850160208301375f918101602001919091529392505050565b5f5f5f6060848603121561060a575f5ffd5b833567ffffffffffffffff811115610620575f5ffd5b61062c8682870161056d565b935050602084013567ffffffffffffffff811115610648575f5ffd5b6106548682870161056d565b925050604084013567ffffffffffffffff811115610670575f5ffd5b61067c8682870161056d565b9150509250925092565b80356001600160a01b038116811461069c575f5ffd5b919050565b5f602082840312156106b1575f5ffd5b6106ba82610686565b9392505050565b602080825282518282018190525f918401906040840190835b818110156106f85783518352602093840193909201916001016106da565b509095945050505050565b5f5f60408385031215610714575f5ffd5b823591506020830135801515811461072a575f5ffd5b809150509250929050565b5f5f60408385031215610746575f5ffd5b61074f83610686565b946020939093013593505050565b5f6020828403121561076d575f5ffd5b5035919050565b5f81518084528060208401602086015e5f602082860101526020601f19601f83011685010191505092915050565b86815260c060208201525f6107ba60c0830188610774565b82810360408401526107cc8188610774565b905082810360608401526107e08187610774565b6001600160a01b03959095166080840152505090151560a090910152949350505050565b5f6001820161082157634e487b7160e01b5f52601160045260245ffd5b5060010190565b600181811c9082168061083c57607f821691505b60208210810361085a57634e487b7160e01b5f52602260045260245ffd5b50919050565b601f8211156108a757805f5260205f20601f840160051c810160208510156108855750805b601f840160051c820191505b818110156108a4575f8155600101610891565b50505b505050565b815167ffffffffffffffff8111156108c6576108c6610559565b6108da816108d48454610828565b84610860565b6020601f82116001811461090c575f83156108f55750848201515b5f19600385901b1c1916600184901b1784556108a4565b5f84815260208120601f198516915b8281101561093b578785015182556020948501946001909201910161091b565b508482101561095857868401515f19600387901b60f8161c191681555b50505050600190811b01905550565b604081525f6109796040830185610774565b828103602084015261098b8185610774565b9594505050505056fea2646970667358221220b6feeb1d15bd8ac516d519d5a3a7b0301a7fe78c879ac094447172ba27e5f79264736f6c634300081e0033","linkReferences":{}},"methodIdentifiers":{"getPetsByOwner(address)":"36dc7676","nextId()":"61b8ce8c","ownerToPets(address,uint256)":"9e0a1b7f","pets(uint256)":"cfb869bf","registerPet(string,string,string)":"2ffbac70","updateStatus(uint256,bool)":"387008c2"},"id":0}