{"abi":[{"type":"function","name":"getPet","inputs":[{"name":"petId","type":"uint256","internalType":"uint256"}],"outputs":[{"name":"","type":"tuple","internalType":"struct PetRegistry.Pet","components":[{"name":"id","type":"uint256","internalType":"uint256"},{"name":"name","type":"string","internalType":"string"},{"name":"breed","type":"string","internalType":"string"},{"name":"ipfsHash","type":"string","internalType":"string"},{"name":"owner","type":"address","internalType":"address"},{"name":"status","type":"uint8","internalType":"enum PetRegistry.PetStatus"}]}],"stateMutability":"view"},{"type":"function","name":"petCount","inputs":[],"outputs":[{"name":"","type":"uint256","internalType":"uint256"}],"stateMutability":"view"},{"type":"function","name":"pets","inputs":[{"name":"","type":"uint256","internalType":"uint256"}],"outputs":[{"name":"id","type":"uint256","internalType":"uint256"},{"name":"name","type":"string","internalType":"string"},{"name":"breed","type":"string","internalType":"string"},{"name":"ipfsHash","type":"string","internalType":"string"},{"name":"owner","type":"address","internalType":"address"},{"name":"status","type":"uint8","internalType":"enum PetRegistry.PetStatus"}],"stateMutability":"view"},{"type":"function","name":"registerPet","inputs":[{"name":"_name","type":"string","internalType":"string"},{"name":"_breed","type":"string","internalType":"string"},{"name":"_ipfsHash","type":"string","internalType":"string"}],"outputs":[],"stateMutability":"nonpayable"},{"type":"function","name":"updateStatus","inputs":[{"name":"petId","type":"uint256","internalType":"uint256"},{"name":"_status","type":"uint8","internalType":"enum PetRegistry.PetStatus"}],"outputs":[],"stateMutability":"nonpayable"},{"type":"event","name":"PetRegistered","inputs":[{"name":"petId","type":"uint256","indexed":true,"internalType":"uint256"},{"name":"owner","type":"address","indexed":true,"internalType":"address"}],"anonymous":false},{"type":"event","name":"PetStatusUpdated","inputs":[{"name":"petId","type":"uint256","indexed":true,"internalType":"uint256"},{"name":"status","type":"uint8","indexed":false,"internalType":"enum PetRegistry.PetStatus"}],"anonymous":false}],"bytecode":{"object":"0x6080604052348015600e575f5ffd5b50610b8b8061001c5f395ff3fe608060405234801561000f575f5ffd5b5060043610610055575f3560e01c80632ffbac70146100595780633a1b3d311461006e57806359d5519414610081578063cd619f58146100aa578063cfb869bf146100c1575b5f5ffd5b61006c6100673660046107ae565b6100e6565b005b61006c61007c36600461083c565b610201565b61009461008f36600461086d565b6102c7565b6040516100a191906108e6565b60405180910390f35b6100b360015481565b6040519081526020016100a1565b6100d46100cf36600461086d565b6104ed565b6040516100a196959493929190610975565b6001546040805160c081018252828152602081018690529081018490526060810183905233608082015260a081015f90525f828152602081815260409091208251815590820151600182019061013c9082610a62565b50604082015160028201906101519082610a62565b50606082015160038201906101669082610a62565b5060808201516004820180546001600160a01b039092166001600160a01b031983168117825560a0850151926001600160a81b03191617600160a01b8360038111156101b4576101b46108b2565b0217905550506001805491505f6101ca83610b1d565b9091555050604051339082907f7a92415b8c58de5d1252866093d59e3297daf4846e2c15c090d8141844397166905f90a350505050565b5f82815260208190526040902060048101546001600160a01b0316331461025e5760405162461bcd60e51b815260206004820152600d60248201526c2737ba103832ba1037bbb732b960991b604482015260640160405180910390fd5b60048101805483919060ff60a01b1916600160a01b836003811115610285576102856108b2565b0217905550827fcf8d77cf4680d0d7d1903938e0e8fe52659b7eff954a84167ae5608129c257a7836040516102ba9190610b41565b60405180910390a2505050565b6102cf6106c3565b5f8281526020818152604091829020825160c081019093528054835260018101805491928401916102ff906109de565b80601f016020809104026020016040519081016040528092919081815260200182805461032b906109de565b80156103765780601f1061034d57610100808354040283529160200191610376565b820191905f5260205f20905b81548152906001019060200180831161035957829003601f168201915b5050505050815260200160028201805461038f906109de565b80601f01602080910402602001604051908101604052809291908181526020018280546103bb906109de565b80156104065780601f106103dd57610100808354040283529160200191610406565b820191905f5260205f20905b8154815290600101906020018083116103e957829003601f168201915b5050505050815260200160038201805461041f906109de565b80601f016020809104026020016040519081016040528092919081815260200182805461044b906109de565b80156104965780601f1061046d57610100808354040283529160200191610496565b820191905f5260205f20905b81548152906001019060200180831161047957829003601f168201915b505050918352505060048201546001600160a01b0381166020830152604090910190600160a01b900460ff1660038111156104d3576104d36108b2565b60038111156104e4576104e46108b2565b90525092915050565b5f602081905290815260409020805460018201805491929161050e906109de565b80601f016020809104026020016040519081016040528092919081815260200182805461053a906109de565b80156105855780601f1061055c57610100808354040283529160200191610585565b820191905f5260205f20905b81548152906001019060200180831161056857829003601f168201915b50505050509080600201805461059a906109de565b80601f01602080910402602001604051908101604052809291908181526020018280546105c6906109de565b80156106115780601f106105e857610100808354040283529160200191610611565b820191905f5260205f20905b8154815290600101906020018083116105f457829003601f168201915b505050505090806003018054610626906109de565b80601f0160208091040260200160405190810160405280929190818152602001828054610652906109de565b801561069d5780601f106106745761010080835404028352916020019161069d565b820191905f5260205f20905b81548152906001019060200180831161068057829003601f168201915b505050600490930154919250506001600160a01b0381169060ff600160a01b9091041686565b6040518060c001604052805f81526020016060815260200160608152602001606081526020015f6001600160a01b031681526020015f600381111561070a5761070a6108b2565b905290565b634e487b7160e01b5f52604160045260245ffd5b5f82601f830112610732575f5ffd5b813567ffffffffffffffff81111561074c5761074c61070f565b604051601f8201601f19908116603f0116810167ffffffffffffffff8111828210171561077b5761077b61070f565b604052818152838201602001851015610792575f5ffd5b816020850160208301375f918101602001919091529392505050565b5f5f5f606084860312156107c0575f5ffd5b833567ffffffffffffffff8111156107d6575f5ffd5b6107e286828701610723565b935050602084013567ffffffffffffffff8111156107fe575f5ffd5b61080a86828701610723565b925050604084013567ffffffffffffffff811115610826575f5ffd5b61083286828701610723565b9150509250925092565b5f5f6040838503121561084d575f5ffd5b82359150602083013560048110610862575f5ffd5b809150509250929050565b5f6020828403121561087d575f5ffd5b5035919050565b5f81518084528060208401602086015e5f602082860101526020601f19601f83011685010191505092915050565b634e487b7160e01b5f52602160045260245ffd5b600481106108e257634e487b7160e01b5f52602160045260245ffd5b9052565b60208152815160208201525f602083015160c0604084015261090b60e0840182610884565b90506040840151601f198483030160608501526109288282610884565b9150506060840151601f198483030160808501526109468282610884565b91505060018060a01b0360808501511660a084015260a084015161096d60c08501826108c6565b509392505050565b86815260c060208201525f61098d60c0830188610884565b828103604084015261099f8188610884565b905082810360608401526109b38187610884565b6001600160a01b038616608085015291506109d3905060a08301846108c6565b979650505050505050565b600181811c908216806109f257607f821691505b602082108103610a1057634e487b7160e01b5f52602260045260245ffd5b50919050565b601f821115610a5d57805f5260205f20601f840160051c81016020851015610a3b5750805b601f840160051c820191505b81811015610a5a575f8155600101610a47565b50505b505050565b815167ffffffffffffffff811115610a7c57610a7c61070f565b610a9081610a8a84546109de565b84610a16565b6020601f821160018114610ac2575f8315610aab5750848201515b5f19600385901b1c1916600184901b178455610a5a565b5f84815260208120601f198516915b82811015610af15787850151825560209485019460019092019101610ad1565b5084821015610b0e57868401515f19600387901b60f8161c191681555b50505050600190811b01905550565b5f60018201610b3a57634e487b7160e01b5f52601160045260245ffd5b5060010190565b60208101610b4f82846108c6565b9291505056fea26469706673582212201062596eea1aa78eadabfb1de72493055bc671f965db4839e761a42f6f2f240764736f6c634300081e0033","linkReferences":{}},"methodIdentifiers":{"getPet(uint256)":"59d55194","petCount()":"cd619f58","pets(uint256)":"cfb869bf","registerPet(string,string,string)":"2ffbac70","updateStatus(uint256,uint8)":"3a1b3d31"},"id":19}